:020000040000FA
:0200000460108A
:10005000FFFFFFFFFFFFFFFFFFFFFFFFFFFFFFFFB0
:10006000FFFFFFFFFFFFFFFFFFFFFFFFFFFFFFFFA0
:10007000FFFFFFFFFFFFFFFFFFFFFFFFFFFFFFFF90
:10008000FFFFFFFFFFFFFFFFFFFFFFFFFFFFFFFF80
:10009000FFFFFFFFFFFFFFFFFFFFFFFFFFFFFFFF70
:1000A000FFFFFFFFFFFFFFFFFFFFFFFFFFFFFFFF60
:1000B000FFFFFFFFFFFFFFFFFFFFFFFFFFFFFFFF50
:1000C000FFFFFFFFFFFFFFFFFFFFFFFFFFFFFFFF40
:1000D000FFFFFFFFFFFFFFFFFFFFFFFFFFFFFFFF30
:1000E000FFFFFFFFFFFFFFFFFFFFFFFFFFFFFFFF20
:1000F000FFFFFFFFFFFFFFFFFFFFFFFFFFFFFFFF10
:10010000FFFFFFFFFFFFFFFFFFFFFFFFFFFFFFFFFF
:10011000FFFFFFFFFFFFFFFFFFFFFFFFFFFFFFFFEF
:10012000FFFFFFFFFFFFFFFFFFFFFFFFFFFFFFFFDF
:10013000FFFFFFFFFFFFFFFFFFFFFFFFFFFFFFFFCF
:10014000FFFFFFFFFFFFFFFFFFFFFFFFFFFFFFFFBF
:10015000FFFFFFFFFFFFFFFFFFFFFFFFFFFFFFFFAF
:10016000FFFFFFFFFFFFFFFFFFFFFFFFFFFFFFFF9F
:10017000FFFFFFFFFFFFFFFFFFFFFFFFFFFFFFFF8F
:10018000FFFFFFFFFFFFFFFFFFFFFFFFFFFFFFFF7F
:10019000FFFFFFFFFFFFFFFFFFFFFFFFFFFFFFFF6F
:1001A000FFFFFFFFFFFFFFFFFFFFFFFFFFFFFFFF5F
:1001B000FFFFFFFFFFFFFFFFFFFFFFFFFFFFFFFF4F
:1001C000FFFFFFFFFFFFFFFFFFFFFFFFFFFFFFFF3F
:1001D000FFFFFFFFFFFFFFFFFFFFFFFFFFFFFFFF2F
:1001E000FFFFFFFFFFFFFFFFFFFFFFFFFFFFFFFF1F
:1001F000FFFFFFFFFFFFFFFFFFFFFFFFFFFFFFFF0F
:10020000FFFFFFFFFFFFFFFFFFFFFFFFFFFFFFFFFE
:10021000FFFFFFFFFFFFFFFFFFFFFFFFFFFFFFFFEE
:10022000FFFFFFFFFFFFFFFFFFFFFFFFFFFFFFFFDE
:10023000FFFFFFFFFFFFFFFFFFFFFFFFFFFFFFFFCE
:10024000FFFFFFFFFFFFFFFFFFFFFFFFFFFFFFFFBE
:10025000525A41500900000000A0110000000000A7
:100260005003106000A01100E81C00000100000015
:1002700000EE276000801100AC05000001000000C6
:1002800000F42760000000004400000001000000AE
:100290003820106000010010C0710F000100000044
:1002A00068392760C0720F10DCB300000100000045
:1002B000548123605CEF037414B803000100000054
:1002C000F8911F60000000745CEF03000100000063
:1002D00060F42760A00C173000000000010000004F
:1002E00060F42760000015300000000001000000ED
:1002F000FFFFFFFFFFFFFFFFFFFFFFFFFFFFFFFF0E
:10030000FFFFFFFFFFFFFFFFFFFFFFFFFFFFFFFFFD
:10031000FFFFFFFFFFFFFFFFFFFFFFFFFFFFFFFFED
:10032000FFFFFFFFFFFFFFFFFFFFFFFFFFFFFFFFDD
:10033000FFFFFFFFFFFFFFFFFFFFFFFFFFFFFFFFCD
:10034000FFFFFFFFFFFFFFFFFFFFFFFFFFFFFFFFBD
:100350000C009FE5100F0CEE08009FE530FF2FE129
:100360001EFF2FE10000000024A01100000000008B
:1003700000BE704748009FE548109FE548209FE574
:1003800048309FE548C09FE548E09FE5110002F135
:1003900000D0A0E1120002F101D0A0E1170002F1AB
:1003A00002D0A0E11B0002F103D0A0E11F0002F186
:1003B0000CD0A0E1130002F10ED0A0E1060000EA8B
:1003C0001EFF2FE1E8CC1100E8C81100E8D41100AD
:1003D000E8D01100E8C01100E8C4110000502DE978
:1003E000020000FA0A0000FA1C0000FA0180BDE8D1
:1003F00011EE500F50F47000020001EE502FBFF3C9
:100400006F8FF8EE101A51F08041E8EE101ABFF32A
:100410006F8F70471BEE100F50F00300BFF34F8F2C
:1004200001000BEE101FBFF36F8F704730B4F82040
:10043000030004EE163F01210C000CEEFC4F1CEEF5
:100440009C2F52F0010215000CEE9C5FBFF36F8FE2
:1004500030BC704700000000DFF800F0974E091034
:1004600080B5002001F048F900F02EFA00F0DCF829
:10047000012001F041F900F0EDF800F0F7F800F08C
:10048000E3F9032001F038F900F010FC00F048F91E
:1004900000F0D4F9022001F02FF900F00DF8FFF779
:1004A000C5FF00F0B1FD00F05AF9FFF7D5FF01BD1F
:1004B000DFF800F0C14C0F1010B5032000F076FCFF
:1004C00000200100C9B2082980F2AA80DFF8D0120A
:1004D000DFF8D0220300DBB252F833300400E4B27C
:1004E00024010B510300DBB212EBC302526803007C
:1004F000DBB21B01C9184A60DFF8AC12DFF8AC228E
:100500000300DBB252F833300400E4B224010B5193
:100510000300DBB212EBC30252680300DBB21B0123
:10052000C9184A60DFF88812DFF888220300DBB2BE
:1005300052F833300400E4B224010B510300DBB263
:1005400012EBC30252680300DBB21B01C9184A60F8
:10055000DFF86412DFF864220300DBB252F83330B4
:100560000400E4B224010B510300DBB212EBC3021E
:1005700052680300DBB21B01C9184A609049914AD6
:100580000300DBB252F833300400E4B224010B5113
:100590000300DBB212EBC30252680300DBB21B01A3
:1005A000C9184A608849894A0300DBB252F83330DF
:1005B0000400E4B224010B510300DBB212EBC302CE
:1005C00052680300DBB21B01C9184A608049814AA6
:1005D0000300DBB252F833300400E4B224010B51C3
:1005E0000300DBB212EBC30252680300DBB21B0153
:1005F000C9184A607849794A0300DBB252F83330AF
:100600000400E4B224010B510300DBB212EBC3027D
:1006100052680300DBB21B01C9184A60401C50E756
:10062000032000F091FB10BD6D480168C90710D48C
:1006300001684908490001606A496B4A116000215C
:100640006A4A116000216A4A1160016851F0010193
:100650000160704770B5674C674D684E6848361A40
:1006600032002900200000F00BF870BD38B5654C51
:10067000654D66482D1A2900200000F02AF831BD8A
:1006800076B4019A002A22D0019A9208140000221E
:100690001300A34205D20268001D0A60091D5B1CFD
:1006A000F7E7019A12F003020092009A002A0CD098
:1006B00005000E0000221300009A934205D22A780A
:1006C0006D1C3270761C5B1CF6E7BFF34F8F73BC5A
:1006D000704773B400250026019900291DD00199A7
:1006E00089080C0000210B00A34203D20560001D05
:1006F0005B1CF9E7019911F00301009100990029B1
:1007000009D0020000210B0000998B4203D2167021
:10071000521C5B1CF8E7BFF34F8F73BC704700009F
:100720002DE9F8433A4C3B4D3B482D1A2900200057
:10073000FFF7CFFF394E3A4F3A483F1A39003000A1
:10074000FFF7C7FFDFF8E080DFF8E0903848B9EB4B
:10075000000949464046FFF7BCFFBDE8F183F8B504
:10076000012000F023FB002414EE165F002604EEA7
:10077000166F3048016831F02001016000682E4892
:1007800001780178017801780178017800782F00EC
:1007900004EE167F012000F0D7FAF1BD0000000042
:1007A0000011288118B90F100012288158B90F10B4
:1007B0000013288198B90F1000142881D8B90F10A0
:1007C0000015288118BA0F100017288158BA0F1089
:1007D000001C288198BA0F10001D2881D8BA0F106C
:1007E000000006C040787D01200006C0080006C059
:1007F0000C0006C000EE276000801100AC851100DF
:1008000000801100B0851100318F1100B0851100FA
:10081000E0591874E0591874E05918740000163043
:10082000A00C173000001630000015300000153005
:1008300000001530080328800830009080B5FFF7CD
:1008400037FE01BD000000008B490868C0F340106E
:10085000096811F00101002804D1884A8A40884BB8
:100860001A6003E0874A8A40854B1A60704738B5A2
:10087000864C874D804805600168009101680091B1
:100880000168009101680091016800910168009180
:1008900001680091006800907B4804600168009145
:1008A0000168009101680091016800910168009160
:1008B0000168009101680091006800900098FFF7BE
:1008C000C3FF31BD0000000078B585B00020009066
:1008D00042F21074002C06D06E48006810F0030F2E
:1008E00001D0641EF6E7002C06D06B48006810F0BB
:1008F000030F01D0641EF6E74AF20350654D2860ED
:10090000654E3060FFF7A0FFFFF7B1FF012063499C
:1009100008600020010089B249F64042914202DAA3
:1009200000BF401CF6E703205D49086001205D49D7
:10093000088040F2FF305C4908800A200490049847
:1009400000280DD0A520594908705948012101708F
:10095000FE210170012101700078012803D106E019
:1009600000F051FB85E053480078C0B20090049835
:10097000401E04904F480078C007E0D401204E4943
:10098000088040F2FF304D4908800A200390039808
:1009900000280DD0A5204A4908704A48012101705D
:1009A000FE210170012101700078012803D106E0C9
:1009B00000F029FB5DE044480078C0B20090039845
:1009C000401E039040480078C007E0D401203F4912
:1009D000088040F2FF313E4801800A2002900298D0
:1009E00000280DD0A5203B4A10703B480122027020
:1009F000FE220270012202700078012803D106E075
:100A000000F001FB35E035480078C0B20090029854
:100A1000401E029031480078C007E0D40120304ADF
:100A20001080304801800A200190019800280DD0E4
:100A3000A5202D4908702D4801210170FE2101706B
:100A4000012101700078012803D106E000F0DBFAF3
:100A50000FE027480078C0B200900198401E019036
:100A600023480078C007E0D44FF425402860306068
:100A7000009806B070BD00000400288100C2EB0B96
:100A8000AC8E110080D1F00800002880030332FFF3
:100A900011000003101A2880001A28817000288194
:100AA00080002881080828810C08288110082881E6
:100AB0000008288114082881280828812C0828810A
:100AC0003008288120082881340828814808288196
:100AD0004C08288150082881400828815408288122
:100AE000680828816C08288170082881600828819E
:100AF000740828812DE9F34383B000270398DDF8BB
:100B0000108008FB00F82A4800680190019842F222
:100B10001071B0FBF1F02749B1FBF0F64FF47A7297
:100B200000235FF00009A2FB080102FB091103FB8F
:100B3000081100240125A94217D801D3A04214D2DC
:100B400042F210720023A2FB004502FB015503FB99
:100B50000055200029003200002300F020EE009014
:100B6000DDF800905FEA990919E0B400B8FBF4F4ED
:100B700042F2107808FB04F85FF00009A2FB084578
:100B800002FB095503FB0855002201239D4204D8AE
:100B900001D3944201D2A14601E05FF0FF39B9F1DF
:100BA000000F02D0484600F007F805B0BDE8F0831A
:100BB000AC8E110000CA9A3B10B50400200000F072
:100BC00001F810BD01380028FCD1704770470000C3
:100BD00010B45FF014412F4A086850F0020008601A
:100BE0000020506100201C2808D22B4B53F82030E5
:100BF00011EB8004C4F8083C401CF4E700230D2BE3
:100C00000BD25FF0FF3011EB8304C4F8840211EBC8
:100C10008304C4F884035B1CF1E762B661B664B672
:100C2000BFF36F8F10BC7047F8B504002500AD0509
:100C3000AD0DB5F12006280040F2FF3180B28842A8
:100C400011D0164F1648397820F811603878401CBA
:100C50003870BFF35F8F62B6BFF36F8F280080B22A
:100C600020280ADB02E000F0CEF912E00D48310046
:100C700009B250F82100804705E00B48290089B2ED
:100C800050F82100804772B6BFF36F8F3878401E4E
:100C90003870F1BD00001094E8801100308F110011
:100CA0003C8D110044D60F10B08E11002DE9F84391
:100CB00011EE107F37F40037BFF34F8F380001EE8D
:100CC000100FBFF36F8FDFF87480DFF87490414628
:100CD0000AEE121F4A460AEE322FBFF34F8F00244E
:100CE000182C0ED2174850F834100D0010EBC40029
:100CF0004068060032002900200000F00CF8641C57
:100D0000EEE700F011F900F003F900F0E9F800F067
:100D1000F3F8BDE8F18330B4030006EE323FBFF3D1
:100D20004F8F0C0006EE134FBFF34F8F150006EEEA
:100D3000335FBFF34F8F30BC70470000FFBB884468
:100D40000004080C2080110010B43B4A0100C9B215
:100D500032F81110002908D00100C9B232F8111080
:100D6000491E0300DBB222F813100100C9B232F8A9
:100D70001110002918D13149314A136853F4254321
:100D80000400E4B231F81440E443A4B223401360F9
:100D90002C4A136853F425430400E4B231F81410CC
:100DA000C94389B20B40136010BC704770B4010096
:100DB00042F2107000280AD0214A12681F4B0C0022
:100DC000E4B233F814301A4201D0401EF2E7002892
:100DD0000AD01C4A1268194B0C00E4B233F81430E4
:100DE0001A4201D0401EF2E7134B0A00D2B233F888
:100DF0001220002A14D1114C114D2E680A00D2B2D3
:100E000034F81220164356F425462E600D4D2E68F8
:100E10000A00D2B234F81220164356F425462E604A
:100E20000A00D2B233F81220521C0C00E4B223F8AC
:100E3000142070BC704700007C8D1100E080110010
:100E4000101A2880001A288110B504000120FFF72D
:100E5000ADFF2000C0B2002807D11F481D4908601F
:100E60000120FFF771FF30BF02E00120FFF76CFFA8
:100E700010BD81B0194AC0F3044310F48001CB18AF
:100E800012EB8302012310F01F018B4000931368C3
:100E900000990B4313601168009101B0704781B055
:100EA0000E4AC0F3044310F48001CB1812EB830206
:100EB000012310F01F018B400093136800998B43AE
:100EC00013600321002903D013680093491EF9E73A
:100ED00001B070472002288102A5214340022880EA
:100EE00011EE100F50F48050BFF34F8F010001EE50
:100EF000101FBFF36F8F704711EE100F50F00400FA
:100F0000BFF34F8F010001EE101FBFF36F8F7047CB
:100F100011EE100F50F00100BFF34F8F010001EEF2
:100F2000101FBFF36F8F70472DE9FF4FBFF34F8F37
:100F30005FF0000A07EE15AFBFF35F8F30EE302F82
:100F4000C2F3026BCDF808B0DDF808B0BBF1000FBA
:100F500057D05FF0000A5346DDF808A053454CD245
:100F60005FF0030B0BFB03FBCDF800B0DDF800A036
:100F700093463BFA0AFB1BF0070BCDF804B0DDF8F3
:100F800004A0BAF1020F36D35FEA430A5446039431
:100F9000DDF80CA040EE10AFBFF34F8F30EE10AF76
:100FA000554615F0070A1AF1040A5646C5F3C90A50
:100FB0005746C5F34E3A5146B7FA87FAD446BCF1C4
:100FC000200F01D1BCF1010C380010FA0CFA54EAE0
:100FD0000A0AD64611FA06FAD04658EA0E0AD1464F
:100FE000CA4607EE56AF002801D0401EEDE70029A3
:100FF00001D0491EE8E75B1CAEE7BFF34F8FBFF39C
:101000006F8FBDE8FF8F704780B5FFF7E1FD01BD31
:1010100010B4002114EE162F002404EE164FDFF852
:10102000E034186800280BD14AF20450DFF8D414D9
:101030000C6804430C60DFF8D0140C68204308608F
:101040001868401C1860100004EE160F10BC7047A2
:1010500010B4002114EE162F002304EE163F42F2C6
:101060001070002806D0DFF89C140968490701D5E4
:10107000401EF6E7002806D0DFF88C1409684907FF
:1010800001D5401EF6E7DFF878341968002902D050
:101090001968491E1960196800290FD14FF6FB71B4
:1010A000DFF860341C680C4054F425441C60DFF801
:1010B00058341C68214051F425411960110004EE98
:1010C000161F10BC704770B504000D002600DFF835
:1010D00040043060B560280000F02BF8A86800F0EC
:1010E0003CF9002070BDF0B403000C00A4B2240A47
:1010F0000D002DB205F0FF05DFF81004005D28415A
:10110000C00702D5DFF8F46301E0DFF808641000DF
:10111000C0B2002805D1305D0127AF40B84330553B
:1011200004E0305D0127AF40384330550020F0BC6B
:10113000704770B504002600FFF76AFF00252800FD
:10114000318880B288420FD27068290089B210EBD2
:10115000C10170682A0092B210EBC200B0F904001D
:1011600000F005F86D1CEAE7FFF772FF70BD2DE98E
:10117000F04104000D002600B6B2360A27003FB247
:1011800007F0FF072868C0F3803000280ED0DF4842
:10119000815D0122BA4011438155DFF860832A0046
:1011A000210009B2404600F011F80DE0D748815DFA
:1011B0000122BA4091438155DFF858832A0021006B
:1011C00009B2404600F002F8BDE8F081F0B5030036
:1011D0000D00ADB22D0A0E0036B206F0FF06042E49
:1011E0001AD213EBC500D0F8007A4FF0FF0C300094
:1011F000C0B2C0001CFA00FC37EA0C073C001068C3
:10120000C0F305273000C0B2C0008740274313EB6E
:10121000C500C0F8007A1DE0042E1BD313EBC500F7
:10122000D0F8047A4FF0FF0C16F1FC00C0B2C000F9
:101230001CFA00FC37EA0C073C001068C0F30527D5
:1012400016F1FC00C0B2C0008740274313EBC50075
:10125000C0F8047A1068C0F3C000002825D013EB52
:101260008500D0F800765FF00F0C3000C0B280002F
:101270001CFA00FC37EA0C073C001068C0F30317A7
:101280003000C0B280008740274313EB8500C0F8D0
:101290000076581990F800041768C7F3C007B740E4
:1012A00038435F1987F8000456E00127581990F871
:1012B00000C417FA06F03CEA000C581980F800C484
:1012C0001068C0F34100012817D113EB4500B0F8B6
:1012D00000C25FF0030E3000C0B240001EFA00FEF4
:1012E0003CEA0E0C64463000C0B240008740274301
:1012F00013EB4500A0F800722EE01068C0F3410027
:10130000022829D31078C00705D4585DB74030EAC9
:1013100007075F5506E01078C00703D5585DB74052
:1013200007435F5513EB4500B0F800725FF0030C04
:101330003000C0B240001CFA00FC37EA0C073C0049
:101340001068C0F341073000C0B240008740274317
:1013500013EB4500A0F80072F0BD2DE9F047050041
:1013600000245FF000095FF0000AA846FFF750FE76
:10137000624F00200100C9B204295DDA0623010092
:10138000C9B2594318EB01010A8A120A0100C9B215
:10139000594318EB01010E8A0100C9B2791891F87E
:1013A0000C1E11F0800194465FFA8CFCBCF1100F0A
:1013B00002D151F0080105E01400E4B2122C01D171
:1013C00051F0100131430400E4B25C4318EB040413
:1013D000E47B012C13D10C000100C9B2594318EB76
:1013E0000101C97C54EA411497F8101E5FF0010C0A
:1013F0001CFA00FC5CEA010187F8101E08E00C00F2
:101400000100C9B2594318EB0101897C54EA411427
:101410000100C9B2791881F80C4E0100C9B203FB72
:1014200001F318EB0301897B012903D101218140DC
:1014300051EA0909401C9DE700263000C0B202288D
:1014400051DA3100C9B20520414318EB0100C079DF
:101450003100C9B218F8111001433000C0B2381879
:1014600080F8001E3200D2B20520424318EB020081
:101470000079012829D13000C0B2381890F8022E26
:1014800012F088023300DBB20520434318EB03005F
:10149000407902433300DBB20520434318EB0300DD
:1014A000807952EA800214003200D2B20520424311
:1014B00018EB0200007A3200D2B217EB820282F8F7
:1014C000040E0120B04050EA0A0A3000C0B218EB06
:1014D0004000407854EA00143000C0B2381880F858
:1014E000024E761CA9E75FEA8A0050EA091087F8E5
:1014F000110EFFF7ADFDBDE8F087000000000A8087
:10150000B8851100101A2880001A2881000C038168
:1015100054524F5000000381030011E30400000AFD
:10152000012052E20130D1240130C024F9FFFF8AAA
:101530001EFF2FE1030010E31200001A102052E2F8
:101540000500003A30002DE93810B1E8102052E2D1
:101550003810A0E8FBFFFF2A3000BDE8823EB0E172
:101560000810B1280810A0280430914404308044A9
:10157000822FB0E1B220D1200130D144B220C0206E
:101580000130C0441EFF2FE1082052E20400003A5F
:101590000810B1E8082052E2043080E404C080E47E
:1015A000FAFFFF2A823EB0E1EEFFFFEA0020B0E33F
:1015B0003F0000EA1224CFE71228DFE7010080E0B5
:1015C000033010E20400000A031051E01000003A5A
:1015D000833FB0E101206045B22060210230A0E1EC
:1015E00000402DE902C0A0E102E0A0E1101051E2AC
:1015F0000C502029FCFFFF8A811EB0E10C0020293D
:10160000042020450111B0E1B22060210120604595
:101610000080BDE8031091E001206015020011E395
:10162000012060151EFF2FE10020B0E3E2FFFFEA7A
:10163000000051E10130823003005031B5FFFF2A34
:10164000020080E0030013E30400000A012052E2DC
:101650000110732501106025F9FFFF8A1EFF2FE19D
:10166000030010E30800001A102052E20500003ABF
:1016700030002DE9321033E9102052E2321020E917
:10168000FBFFFF2A3000BDE8102082E2042052E276
:101690000410332504102025FBFFFF8A042082322A
:1016A000012052E20110732501106025FBFFFF8A23
:1016B0001EFF2FE100402DE90230A0E102E0A0E191
:1016C00002C0A0E1101051E20C50A028FCFFFF8ADC
:1016D00081CEB0E10C00A02804208044811FB0E13D
:1016E000B220C0200120C0440080BDE800000000FE
:1016F000DFF800F0E7D7071010B504002000C0B2F3
:10170000022808D1FFF7F4FF03498868002802D0B7
:101710000248FFF7D8FC10BDB8841100848D110079
:10172000024690FBF1F001FB10217047B0FBF1F095
:10173000704700000246B0FBF1F001FB102170473A
:1017400004F01FE580C40D1080C413E20100005AAC
:10175000002072E20030E3E241C03CE00E00000AEB
:1017600000502DE90100003A000070E20010E1E2B3
:10177000090000EB0050BDE88CC0B0E10200003A67
:10178000000070E20010E1E20C001CE11EFF2F518E
:10179000002072E20030E3E21EFF2FE1030013E1BC
:1017A0000D00001A010011E12700001A00502DE978
:1017B0000210A0E1DEFFFFFA0120A0E10010A0E38B
:1017C0000030A0E30090BDE80130A0E10020A0E1DE
:1017D0000010A0E30000A0E31EFF2FE1020050E193
:1017E00003C0D1E0F7FFFF3A10402DE9114F6FE140
:1017F00013EF6FE104405EE01334B0E120E064E2F7
:1018000032CEB0E10C3093E11224B0E180C4B0E3F9
:101810003CC4B0E1010000EAA330B0E16220B0E1D5
:10182000020050E10340D1E0020040200410A0215A
:101830000CC0BCE0F7FFFF3A0020B0E10130B0E19E
:101840000C00B0E10010B0E31080BDE8010052E3ED
:101850001900009A10402DE9114F6FE112EF6FE16E
:10186000204064E20E4094E020C054E2E2FFFF3AE0
:10187000122CB0E18044B0E3344CB0E100E0B0E3BE
:10188000010000EAA220B0E16330B0E1030050E1C2
:1018900002C0D1E0030040200C10A0210440B4E0BD
:1018A0000EE0BEE0F6FFFF3A0020B0E10130B0E10B
:1018B0000400B0E10E10B0E11080BDE89FFFFF3AD8
:1018C0000020B0E30030B0E31EFF2FE10000000075
:1018D0002DE9F04704000D002600AF690120FFF755
:1018E00065FA002214EE161F002304EE163F5FF087
:1018F0000108DFF85805D0F800C097F800E01EF1A5
:10190000040E18FA0EFE3CEA0E0CC0F800C0006887
:101910003878002803D1DFF83805006802E0DFF8E6
:10192000340500683878002803D1DFF82405006802
:1019300002E0DFF8200500683878002803D1DFF8DE
:101940001005006802E0DFF80C0500683878002810
:1019500003D1DFF8FC04006802E0DFF8F804006857
:101960003878002803D1DFF8E804006802E0DFF8E7
:10197000E40400683878002803D1DFF8D404006854
:1019800002E0DFF8D00400683878002803D1DFF8DF
:10199000C004006802E0DFF8BC0400680A0004EE3E
:1019A000162F3878002803D10420FFF778FA02E0D8
:1019B0000520FFF774FA0120FFF7C6F90320FFF7AF
:1019C000F5F90320FFF7C0F938784FF48051DFF8BC
:1019D00080A401FB00AAC6F810A0356030697978B0
:1019E00010EB8100B5F9001001652888B082032052
:1019F000FFF7DCF95FF000097868B0F5801F12D0BE
:101A0000B0F5001F12D0B0F5800F12D0B0F5000F66
:101A100012D0B0F1807F12D0B0F1007F12D0B0F1BF
:101A2000806F12D014E00020814611E00120814631
:101A30000EE0032081460BE00720814608E00F20DE
:101A4000814605E01F20814602E03F208146FFE7F6
:101A50000020316908607878002808D130696C303E
:101A60004946C9B2026861F30502026007E03069C5
:101A70006C304946C9B2026861F30D22026003204E
:101A8000FFF762F93069797810EB810029888905C0
:101A9000890DBA681278120412F470221143BA68E0
:101AA0009278120512F480121143BA6852785205E6
:101AB00012F4001211430165306979780901401868
:101AC000E978890011F00C01016130697978090128
:101AD0004018E97B2A79120412F4F81252EA012222
:101AE00042613069797809014018297B09028161D6
:101AF000FF2031690866387B000410F4803050F410
:101B0000786031698860787810F00100316970314F
:101B10000A6860F3C3020A600020B060DFF838038F
:101B2000F060DFF838130A68387840007B78C01816
:101B300018FA00F858EA0208C1F800800020BDE851
:101B4000F087F8B504000D00160027003200D2B26D
:101B50002900380000F004FA0020F2BD2DE9FC4114
:101B600004000D0016001F00A046D8F8000081797F
:101B7000404600F0A8F900280DD1404600F070F969
:101B80000020002114EE162F002304EE163F17F05C
:101B9000030F13D104E0FFF736FA49F6424045E05F
:101BA0003300AC460021B1EB970F1ED2DCF80000E9
:101BB00018601B1D1CF1040C491CF4E7F9070DD437
:101BC0003300AC460021B1EB570F0ED2BCF8000039
:101BD00018809B1C1CF1020C491CF4E70021B9423F
:101BE00003D2685C7054491CF9E7BFF34F8F402F54
:101BF00010D20020052806D2D8F810305B68009378
:101C0000009B401CF6E7D8F810006430036853F4DA
:101C100080730360D8F81000D0F88401C00701D4A5
:101C200000BFF7E7130004EE163F0020BDE8F68181
:101C30002DE9F84F88B083468A4614005D4628682F
:101C40008069019001980678019840788DF800002D
:101C500000275FF000085FF0010914F1010F2AD09E
:101C60005246B2F1C04F02D25FF0005100E00021B5
:101C70009DF8000000280FD13000C0B2002805D127
:101C8000884618EB020818F1204814E0884618EB43
:101C9000020818F118480EE03000C0B2002805D143
:101CA000884618EB020818F11C4804E0884618EB37
:101CB000020818F1144800202968897C884213D250
:101CC0002968496911EBC00149688C420AD114F1B5
:101CD000010F01D1002189462968496931F8301086
:101CE0000F0001E0401CE7E7280000F0B9F802A867
:101CF0001821FFF75CECADF81470CDF81080484661
:101D0000C0B2002805D02868C078401C10F0070039
:101D100000E000208DF8180001208DF81700012246
:101D200002A9280000F01CF90198007B01280CD1C1
:101D30002869D0F88401C00701D500BFF8E72869F9
:101D40006430016851F480610160002009B0BDE891
:101D5000F08F2DE9F84304000D0026003069D0F81B
:101D6000849119F00107C9F3801818F0010858EAA6
:101D70000700C0B2002803D057EA0800287005E029
:101D800030688179300000F09EF828700020BDE8AE
:101D9000F283F0B4020013001C68A56999821869E7
:101DA0006E7810EB860050300E0036B2076866F38E
:101DB000090707600020F0BC70472DE9F84F0500C7
:101DC000A846D8F80090D9F818600020C8F80C0090
:101DD000012722480168327852007378D21817FA26
:101DE00002F2914301600068032132785200914071
:101DF000084228D10320FEF7D9FF0320FEF7A4FFF5
:101E00000120FEF7D3FF3078002803D10420FFF72C
:101E100030F802E00520FFF72CF85FF0000A14EE1E
:101E2000164F5FF0000B04EE16BF084801683278C9
:101E3000121D97400F4307600068270004EE167FCD
:101E40000120FEF781FF0020BDE8F28F000328800B
:101E5000000022800010228049505351A88E1100AA
:101E6000F8B586B0040068461821FFF7A0EB256896
:101E7000687BADF80C0001208DF80F00687B00280E
:101E800001D100201DE001226946200000F068F821
:101E900001260027052F0BD22068C179200000F011
:101EA00012F806003000C0B2002801D17F1CF1E713
:101EB0003000C0B2002801D0002002E0FFF7A3F8F4
:101EC000182007B0F0BD2DE9F84386B004000D00DE
:101ED0002768BE6968461821FFF768EB5FF00008C5
:101EE0005FF00009B87BADF80C0001208DF80F0001
:101EF00001208DF81100B4F91400902803D0B4F932
:101F0000140048280FD1B4F9140081462069717873
:101F100010EB810050300168890A890201600020BD
:101F2000A0820120804600226946200000F018F8B7
:101F30004046C0B200280CD02069717810EB8100B7
:101F40005030494609B2026861F309020260A4F800
:101F500014900098E84010F0010007B0BDE8F0834D
:101F6000F0B4036970331C6834F030041C600369FA
:101F70001B6FDB0701D500BFF9E7CB7B13F0030331
:101F80000C7CA40014F01C0423434C7C640114F466
:101F9000F07423438C7B640214F4785423431400BC
:101FA000E4B2E40314F4004423438C8953EA046349
:101FB0000469C4F880308B680469C4F88430130065
:101FC000DBB2012B0CD1D1E900450369C3F888408D
:101FD0004B7C052B04D3D1E900450369C3F88C5031
:101FE000036970331C6854F001041C600369D3F862
:101FF0009031DB0701D400BFF8E71300DBB2002B00
:1020000014D10369D3F888400025C1E900454B7C11
:10201000052B0BD3D1E900670369D3F88C40002569
:102020002500002434433D43C1E9004501230469F0
:10203000C4F89431F0BC704704F01FE500A0110013
:10204000310F19EEFC1F01E3001040E3010000E036
:10205000031000E3101040E3010080E14FF07FF532
:10206000310F09EE6FF07FF5F2FFFFEA1EFF2FE15F
:102070000200908C091A0800D38C80B2984205D2D5
:10208000926A89B2C0204143501800E00020704796
:102090002DE9F04104000D0015F1780615F1300727
:1020A000F069002803D196F82000002839D1F8699A
:1020B000002803D197F82000002832D196F820009C
:1020C00000280BD0F06980460020F061172088F8C6
:1020D000080042464121200001F0F7FF97F8200058
:1020E00000280BD0F86980460020F861172088F896
:1020F000080042464121200001F0E7FF012085F859
:1021000020003100200000F0CEFD3900200000F05A
:10211000CAFD3100200000F010FE3900200000F060
:102120000CFEBDE8F081FEB505000E00300080B267
:10213000002801D1012036E0A88C10FA86F0B0F515
:10214000803F04D300229821062001F04AFEEE844D
:10215000C027EC8C7C43002C0DD001200090112373
:102160000022210001A8B7F0DAFA0199002901D173
:10217000002018E0A96200210800EA8C80B2904299
:1021800010D2A86A0A0092B27A438018AA8C8A18E0
:10219000828000238371002383870023A0F884308A
:1021A000491CE9E70120FEBD30B4010000220023F4
:1021B0001800CC8C80B2A0420BD28C6A1D00ADB24C
:1021C000C020454360198079002800D0521C5B1C58
:1021D000EEE7100080B2002801D0012000E00020CE
:1021E00030BC70473EB50500AC6A002C07D001201A
:1021F000009011230022210001A8B7F09CFA37BDFE
:102200002DE9F84306000F009046D7F82090B9F862
:1022100000103000FFF72CFF0500002D05D13A001B
:102220008621300001F051FF68E0A879002805D030
:102230003A008721300001F048FF5FE04046C0B21D
:10224000002805D03A00C321300001F03EFF55E0E0
:1022500099F81400642404FB00F4002C02D0B4F5B7
:10226000803F05D33A008621300001F02EFF45E083
:1022700099F81500032803DB99F81500102805DBF1
:102280003A008621300001F020FF37E02E60B9F8D7
:102290000000A88085F8078015F10800E860E8686C
:1022A000A86015F11000686168692861B9F802003A
:1022B0002883062219F1060115F11A0000F045FAEB
:1022C000AC8599F81500E885002085F820000020ED
:1022D00068620020A8620022290015F1300000F099
:1022E000B9FC0122290015F1780000F0B3FC0220AE
:1022F000A8713A000121300001F0E7FEBDE8F1834A
:10230000F8B505000E00376A39882800FFF7B0FEDF
:102310000400002C05D132008621280001F0D5FEF2
:102320001FE0A07910F00A0F05D1320087212800A4
:1023300001F0CBFE15E0A06A002805D0320087210D
:10234000280001F0C2FE0CE00420A071606AA849D8
:10235000884201D078686062A66221002800FFF7F9
:1023600097FEF1BD2DE9F84305000E00376A398864
:102370002800FFF77DFE0400002C05D132008621E5
:10238000280001F0A2FE90E0A07902280ED0A079EA
:10239000082805D13200C421280001F096FE04E08F
:1023A00032008721280001F090FE7EE0B88C3A30A0
:1023B00040F2EF51884205DB32008621280001F00F
:1023C00084FE72E0B88C00280CD0B86A002803D0D4
:1023D000788CB98C884205D232008621280001F021
:1023E00074FE62E0B7F80280404680B2002809D04F
:1023F000404680B2012805D032008621280001F035
:1024000064FE52E0404680B214EBC0008068414652
:1024100089B214EBC101083188422FD1404680B205
:10242000002802D114F1300901E014F17809404686
:1024300080B214EBC00008303060404680B214EB2C
:10244000C000C0687060404680B214EBC000C06835
:102450000660404680B214EBC000C660B9F80C00BC
:10246000012822D11420A9F80C00E08DA9F844001D
:102470004A462100280000F0A9FF16E0404680B23D
:1024800014EBC00008303060404680B214EBC0004E
:10249000C0687060404680B214EBC000C06806603F
:1024A000404680B214EBC000C660BDE8F18338B589
:1024B00004000D000020296A888429002000FFF70D
:1024C00051FF31BD2DE9F84305000E00D6F82080FC
:1024D000B8F80270380080B2012809D0380080B204
:1024E000002805D032008621280001F0EEFD7DE0B5
:1024F000B8F822004FF6FF71884205D132008621DC
:10250000280001F0E2FD71E0B8F82200002813D0A5
:10251000D8F82800002805D132008621280001F0D3
:10252000D4FD63E0B8F822001C2805DA32008621C9
:10253000280001F0CAFD59E0B8F800102800FFF7A4
:1025400097FD0400002C05D132008621280001F0FF
:10255000BCFD4BE0A07902280BD0A079082808D058
:10256000A079042805D032008721280001F0ADFDB4
:102570003CE0380080B2002802D114F1300901E0BB
:1025800014F17809D9F81C00002805D03200872101
:10259000280001F09AFD29E0B9F80C00012819D1B2
:1025A000A079022816D11248616A814212D1A1880D
:1025B000326A118099F80E10326A5180316A48618E
:1025C000182030720820A0713200C421280001F0C8
:1025D0007CFD0BE0C9F81C60012089F82000A0797F
:1025E000042803D121002800FFF752FDBDE8F18344
:1025F00012FD81CF1CB50400002C10D00620ADF8D0
:1026000000000120ADF80200684601F0C1FB80B275
:10261000012801D1012000E00020C0B208E001F053
:10262000D4FB80B2012801D1012000E00020C0B21B
:1026300013BDF8B504000D0016001F003A0092B259
:1026400031002800B6F03EFD2080F1BD70B50400D9
:102650000D00160031002800B6F045FE208070BD48
:1026600010B5040022006A491220BCF06AF910BDBE
:102670002DE9FC4104000D00A846B8F804002082B2
:10268000002000902B00B8F804201121200047F012
:102690009EFE0600B8F8040047F019FF070022006C
:1026A0003900300080B2BCF02DF9BDE8F3812DE98E
:1026B000FC4105000E003400002C01D0012000E098
:1026C0000020C0B2A0882882002000903300A28899
:1026D0001121280047F07BFE0700A08847F008FF83
:1026E00080462A004146380080B2BCF00BF9BDE8B4
:1026F000F3812DE9FC4105000E003400002C01D0CF
:10270000012000E00020C0B2A088288200200090B4
:102710003300A2881121280047F059FE0700A08845
:1027200047F0F7FE80462A004146380080B2BCF0F0
:10273000E9F8BDE8F38170B504000D001600320021
:1027400029002000BCF027F970BD70B504000D0011
:102750001600320029002000B7F063FA70BD70B592
:1027600004000D001600320029002000B7F063FAC3
:1027700070BDF8B504000D0016001F00380080B2CF
:10278000042803D0380080B205280AD121480090DF
:102790003B009BB2320092B229002000B6F013FF3A
:1027A00009E01C4800903B009BB2320092B2290025
:1027B0002000B6F0F5FEF1BDF8B504000D001600DE
:1027C0001F003B009BB23200290089B22000B6F006
:1027D0000DFFF1BD38B504000D00290089B22000BD
:1027E000B6F012FF31BD38B504000D00290089B2E2
:1027F0002000B6F012FF31BD38B504000D002A00EC
:10280000210089B201A0B7F03BFA31BD61637000CD
:10281000CD2400109920001003005A547047020084
:102820001000405C704776B504000D00200046198A
:10283000BDF80400BDF0DEFBADF80400022201A9E2
:102840003000B7F0EEF973BD7CB504000D00200038
:102850004619022231006846B7F0E3F9BDF80000DE
:10286000BDF0D5FBADF80000BDF8000076BD76B533
:1028700004000D00200046190198BDF0C2FB019034
:10288000042201A93000B7F0CCF973BD7CB5040077
:102890000D0020004619042231006846B7F0C1F946
:1028A0000098BDF0BBFB0090009876BDF8B584B0F1
:1028B00006009C270B20009011233268402103A8BA
:1028C000B6F02DFF039C002C01D1002017E00C2056
:1028D000009011233268390089B202A8B6F01FFFB8
:1028E000029D002D09D10B20009011233268210098
:1028F00001A8B6F020FF002001E02563200005B00C
:10290000F0BD3EB504000D000C200090112322689C
:10291000296B01A8B6F00FFF0B200090112322684D
:10292000290001A8B6F007FF37BD2DE9F0410500E9
:102930000E0015F1200768683860002078600020DC
:10294000B8600020B881002038750020B86117F108
:102950001C003862386AF86117F12400B862B86A5E
:10296000786217F12C003863386BF8623800FFF793
:102970009DFF0400002C01D1002019E001202072ED
:102980000020E062002060720020A0620020E06071
:10299000D4F830800FF2D110C8F80800A8F806600B
:1029A000287888F8040039682000FFF761FE0120CC
:1029B000BDE8F0812DE9F04105000E00170015F18A
:1029C0002008346B002C05D13200A021042001F036
:1029D00008FA16E0380080B2012808D031004046DD
:1029E000FFF78FFFC021280001F085FC09E0206877
:1029F000C8F80400002342F205323100404600F0DE
:102A0000A1F8BDE8F0812DE9F04104000D001600A9
:102A100014F12007D5F83080300080B2012805D0AD
:102A2000320092B2C421042001F0DBF998F83100A1
:102A3000002809D098F83100012805D098F83120F5
:102A4000C821042001F0CDF9D8F81400B860D8F8F6
:102A50000000B881062218F11C0117F10E00FFF7E3
:102A600074FE98F83100012801D1012000E0002017
:102A70003875BD61B868E0610121200001F03BFCC0
:102A8000A1683800DCF05CF9BDE8F081F8B504001D
:102A900014F12005AF693E6B00203070002070609B
:102AA000002341F202023900280000F04BF8F1BD8A
:102AB000F8B504000D00160014F120076088032803
:102AC00006D1B869854203D1300080B2012805D013
:102AD00000224FF48371042001F083F90220287250
:102AE0000020E8620020E860002068727868A86230
:102AF0000020786039682800FFF7D9FDF1BDF8B5EE
:102B000004000D00160014F120076088032806D188
:102B1000B869854203D1300080B2012807D0320065
:102B200092B240F22111042001F05BF909E0B96989
:102B30003800FFF7E6FE3800DCF03EF9200001F037
:102B400041FCF1BDF8B504000D0016001F00002087
:102B500068726068A86203202872EE62EF602168E4
:102B60002800FFF7C6FDF1BDF8B50400002C05D123
:102B7000002240F24F11042001F033F9607A01F095
:102B8000BCFA0500002D05D1627A4FF4AA71042029
:102B900001F027F96789207A012804D052D303284D
:102BA0000FD007D34EE03A0092B221002800FFF781
:102BB00001FF4DE03A0092B221002800FFF79FFF8D
:102BC00046E0266B002E05D1220040F2771104204A
:102BD00001F007F9E06A4FF48051401A15D0401E09
:102BE0000CD0401E20D041F20331401A23D13A00CC
:102BF00092B221002800FFF706FF22E03A0092B2CD
:102C00002100E068DCF078F91BE06888032805DB28
:102C1000210015F12000DCF043F804E0210015F15B
:102C20002000DCF0E9F80CE03A0092B22100280024
:102C3000FFF73EFF05E0E26A40F29311042001F045
:102C4000D0F805E0227A4FF4CD71042001F0C9F8E4
:102C5000F1BD000070B504000D001600A560A6735C
:102C60004FF6FF7060824FF6FE71A182E0822183F1
:102C70000020E061002084F8200014F12400A0620C
:102C8000A06A60620020E073002020740020A4F895
:102C9000440022000FF2C91114F12C0001F044F994
:102CA0000120A08170BDF8B504000D00AE6815F1DB
:102CB0002C0001F0CBF90020E87300202874A889CB
:102CC000142802D0A8891E2806D12800016842686D
:102CD0001160416800684160A87B16EBC000806805
:102CE000A97B16EBC1010831884213D0A87B16EBF3
:102CF000C0008768A87B16EBC00080680168426846
:102D000011604168006841603A004121200001F0F3
:102D1000DCF9E1E7686A15F1240188420CD06F6A9A
:102D2000686A016842681160416800684160390062
:102D3000206ADCF056F8EDE7F1BD38B504000D006F
:102D4000A889012808D014280DD015280ED01E28D7
:102D500009D01F280AD00AE00A20A88129002000F3
:102D600000F07EFC08E00A20A88105E004E0AA89C2
:102D7000CC21072001F035F831BD30B40200080045
:102D800080B212EBC00080680B009BB212EBC30351
:102D90000833984210D0080080B212EBC00080685F
:102DA0000B009BB212EBC3039B681C685D682C6030
:102DB0005C681B685C6000E0002030BC7047F8B5C0
:102DC00004000D00AE68A889012805D0AA89EF216A
:102DD000072001F006F842E096F82000002806D00F
:102DE0000A20A8812900200000F03AFC37E0287C66
:102DF000002807D000202874290015F12C0000F0CD
:102E00002FF82CE0B079022829D1686A15F1240145
:102E100088420CD06F6A686A016842681160416834
:102E2000006841603900206ADBF0E6FF17E0A87B0C
:102E300016EBC0008068A97B16EBC10108318842FF
:102E40000DD0E87B00280AD11420A881F08DA5F8C8
:102E500044002A003100200000F0B8FAFFE7F1BD7D
:102E60002DE9F84305000E003700D7F80880D8F8A0
:102E70000090B889002806D1BA8940F2571107207E
:102E800000F0AFFF47E0B889012802D00120387474
:102E900041E0F87B00283AD098F80600022802D0DA
:102EA0000020A7F84400B7F8440000280DD0B7F878
:102EB0004400401EA7F844001420B8813A0041465F
:102EC000D8F8000000F082FA25E0B97B89B24046CC
:102ED000FFF753FF0400002C1DD017F12C0001F068
:102EE000B5F80020F8730020C8F82400082088F8FE
:102EF0000600D8F82400216A48612200C42148460F
:102F000001F0E3F839004846FFF759FF03E03900C4
:102F10004846FFF754FFBDE8F1832DE9F34F81B038
:102F200016001F0000975FF000090025029831008D
:102F3000C9B210EBC100806802993200D2B211EB25
:102F4000C2010831884201D1002405E00298310015
:102F5000C9B210EBC1008468002C05D1002240F2F8
:102F6000AF11072000F03DFFD4F82080207A16280A
:102F700001D101208146484680B200280CD05FF084
:102F8000120A1635B8F80200012802D148F2010BE6
:102F90001CE048F2020B19E05FF0160A1A35B8F887
:102FA0002400002809D0B8F8240010EB0A0A1AF10E
:102FB000020AB8F824004519AD1CB8F8020001282F
:102FC00002D15FF0010B01E05FF0020BBDF83000B1
:102FD000290089B2884201D200207FE05A4692B28D
:102FE00000213800FFF71FFCBF1C524692B200219F
:102FF0003800FFF718FCBF1C4FF480720021380026
:10300000FFF711FCBF1CB8F8042000213800FFF7BF
:103010000AFCBF1CD8F8082000213800FFF727FC65
:103020003F1DB8F80C2000213800FFF7FCFBBF1C47
:10303000B8F80E2000213800FFF7F5FBBF1C48460A
:1030400080B2002810D0B8F8102000213800FFF717
:10305000EAFBBF1CD8F8142000213800FFF707FC5A
:10306000391D280080B239E0D8F818200021380036
:10307000FFF7FDFB3F1DD8F81C2000213800FFF7AB
:10308000F6FB3F1DB8F8102000213800FFF7CBFBFE
:10309000BF1CB8F82400002810D0B8F82020002168
:1030A0003800FFF7C0FBBF1CB8F82420D8F8281060
:1030B0003800FFF74AFBB8F824003F1828000099B1
:1030C000791A80B289B2884206D02A0092B24FF4AF
:1030D0000471072000F085FE280080B2BDE8FE8F55
:1030E0002DE9F14F82B00D0016001F000C9C0298D4
:1030F0008088296A0880286A44800020296A4861FB
:10310000380080B2162801DAC020E5E001960021DF
:103110003000FFF799FB8046B61C200080B20028E3
:1031200008D1404648F2020180B2884202D11920FB
:10313000287224E0200080B2012808D1404648F2DD
:10314000010180B2884202D11920287217E02000C4
:1031500080B2002806D1404680B2022802D1182051
:1031600028720CE0200080B2012806D1404680B2CF
:10317000012802D11820287201E0C020ACE0002113
:103180003000FFF761FB8146B61C00213000FFF7DD
:103190005BFB8246B61C504680B2B0F5807F01D002
:1031A000C02099E0484680B2390089B2091F8842A0
:1031B00001D0C02090E000213000FFF745FB296AD4
:1031C0008880B61C00213000FFF760FB296A886008
:1031D000361D00213000FFF737FB296A8881B61CB5
:1031E00000213000FFF730FB296AC881B61C287A1D
:1031F00019280FD100213000FFF726FB296A088229
:10320000B61C00213000FFF741FB296A4861311DDF
:10321000012061E0380080B21A2801DAC0205BE0AA
:1032200000213000FFF732FB296A8861361D00213A
:103230003000FFF72BFB296AC861361D00213000E2
:10324000FFF702FB296A0882B61C0020296A08845D
:103250000020296A8884286A806A002801D1012018
:103260003AE0ADF80070286A408CBDF80010884242
:1032700010D3BDF800200199286A806AFFF765FA2B
:10328000BDF800001D2809DBBDF800001C38296AC4
:10329000888403E04FF6FF70296A8884B7F11A0B1F
:1032A000584680B2022816D300213000FFF7CCFA2E
:1032B000296A0884B61CBBF1020B286A408C594667
:1032C00089B21C31884206DA4FF6FF70296A888479
:1032D000286A408C83460120BDE8FE8F70B402004E
:1032E000136AD86913F11C04A04208D0D869DC69BC
:1032F0002568666835606568246865603DE0888992
:103300001E281CD113F12C000860186B4860186B44
:1033100001601963D86A13F12C04A04201D1002086
:1033200000E0D86A0024002826D0641C056813F148
:103330002C06B54201D10020F5E70068F3E713F150
:1033400024000860986A4860986A01609962586A27
:1033500013F12404A04201D1002000E0586A0024A7
:10336000002809D0641C056813F12406B54201D178
:103370000020F5E70068F3E7002070BC70472DE9F6
:10338000F04704000D001600276AD5F83090D6F8F3
:1033900008A0D9F80480B8F1400F07D20020D9F86E
:1033A000001001F8080018F10108F4E7B07B237859
:1033B0001B0453EA0063BAF80400034341F201021C
:1033C00029003800FFF7BEFBBDE8F0872DE9F8477C
:1033D00087B005000E001700B889142806D0BA89F6
:1033E00040F2C931072000F0FCFC5BE03900280006
:1033F000FFF774FF0400002C54D0D4F83080F0792B
:10340000002805D0C32240F2DE31072000F0E9FC9D
:1034100040F2CE500090D8F8000010F12003BA7BA3
:1034200031002800FFF779FD8146484680B2002828
:1034300026D0F079002805D0C32240F2EF310720D2
:1034400000F0CFFC484680B20690388B0590788A11
:1034500004901120039001200290B0880190308BDD
:10346000009016F11A03BA7B41462800DBF03FFBBF
:103470001520B8813A0021002800FFF780FF11E0F5
:10348000D5F820A01AF11C002060DAF82000606056
:10349000DAF820000460CAF82040842239002800AD
:1034A00000F003F808B0BDE8F0872DE9F041040012
:1034B0000D001600A889152806D0AA8940F20E41F1
:1034C000072000F08EFC3FE0AF6897F8200000284E
:1034D00002D00020E87331E0300080B2012807D12B
:1034E0000120E873B98D15F12C0000F024FD25E0D2
:1034F0000020E873A87B17EBC0008068A97B17EB5E
:10350000C1010831884219D0A87B17EBC000D0F860
:103510000880A87B17EBC0008068016842681160D2
:103520004168006841600020D8F8201048610820F8
:10353000B8714246C421200000F0C7FD0120A881D7
:1035400029002000FFF73BFCBDE8F0812DE9F841A0
:1035500087B006000F00B8891E2806D0BA8940F24D
:103560004341072000F03DFC48E0B86890F8200097
:10357000002808D0B86890F8202040F24641072083
:1035800000F02FFC3AE039003000FFF7A7FE0400FE
:10359000002C33D0D7F80880256B002D05D10022F0
:1035A00040F25241072000F01CFC98F80700002868
:1035B00005D0C32240F26341072000F012FC002036
:1035C0000690388B0590B88A049001200390032060
:1035D0000290B8F804000190B8F818000090B8689C
:1035E00010F11A03BA7B29003000DBF080FA1F20AB
:1035F000B8813A0021003000FFF7C1FE08B0BDE8F5
:10360000F081F8B504000D001600A8891F2805D028
:10361000AA8940F27C41072000F0E3FBE86900281A
:1036200017D0E869007A172813D0EF690020E86105
:10363000300080B2012806D0A8681821397208210C
:103640008171C4210E003A00310089B2200000F0DF
:103650003CFD0120A88129002000FFF7B0FBF1BD4F
:103660002DE9F84F88B006000F00B8890A2806D067
:10367000BA8940F2AA41072000F0B3FB6FE0D7F807
:10368000088098F82000002809D0B87B012806D1CE
:103690000B20B8813900300000F064F85FE0390099
:1036A0003000FFF71BFE0400002C58D05FF000092B
:1036B000D4F830A0DAF8000010F1200598F80700DF
:1036C000002805D0C3224FF49B61072000F089FB3E
:1036D000D8F8242000212800FFF7C9F8281D0790FA
:1036E00004200690388B0590B88A0490012003903E
:1036F00004200290B8F804000190B8F81800009077
:1037000018F11A03BA7B51463000DBF0F0F998F853
:10371000070000281CD1D8F82850002D18D0287A8E
:10372000142815D1286A10F1080BDBF80400814633
:10373000D8F824000290B87B80B20190B8F8040059
:103740000090F3691AF1040207995846DBF097FBE1
:103750000B20B8813A0021003000FFF710FE09B0BD
:10376000BDE8F08FF8B504000D00A8890B2806D03D
:10377000AA8940F20351072000F033FB28E0AE682D
:1037800096F8200000281DD00020A881B08F0028C6
:103790001ED1B6F8840000281AD1B06A002806D1DC
:1037A000002240F21251072000F01BFB10E0B76A24
:1037B0000020B0620020B0713A000121200000F02A
:1037C00084FC05E00120A88129002000FFF7F7FA1A
:1037D000F1BD0100080080B2012809D0432809D0BA
:1037E00084280BD0862807D0C32801D0C42807D14D
:1037F000012006E0412004E0C62002E0C72000E0EE
:10380000C020704770B50400256A0026E86A15F1EB
:103810002C0188420DD0E86A0600E86A0168426817
:10382000116041680068416031002000FFF78EFEA2
:103830001AE0686A15F12401884215D0686A06000A
:10384000686A016842681160416800684160B08937
:103850000A2804D131002000FFF702FF04E0320003
:10386000B1682000FFF7B2FD70BD2DE9F84F0600EA
:103870000F00904699460A9D414689B23000FEF7F6
:10388000F7FB0400002C05D1002240F26C51072008
:1038900000F0A7FA4846C0B2002802D114F1300A5D
:1038A00001E014F1780A280080B2FFF792FF834606
:1038B000306A1C303860306A006A7860306A006AAA
:1038C0000760306A0762BAF80C000B2812D015287E
:1038D00002D01F2807D012E05A4692B2514630005B
:1038E000FFF7E3FD12E05A4692B251463000FFF76F
:1038F00088FE0BE051463000FFF734FF06E0BAF8CF
:103900000C2040F28951072000F06BFA3000FFF7DD
:1039100079FFBDE8F18F2DE9F84F05000E00170083
:103920009846D5F82090D6F808B0B089012806D07E
:10393000B28940F2AA51072000F053FA80E0B8F8AB
:103940000E00F18A88420FD039004846DBF049FA70
:10395000B8F80E00318B884205D11E20B0813100AD
:103960002800FFF7F3FD6BE0F07B002826D0B8F8C5
:103970001000718A884221D1B17B89B25846FFF785
:10398000FCF90400002C11D016F12C0000F05EFBB5
:103990000020F0730020CBF82400DBF82400216A1B
:1039A000486122000121280000F08FFB708AB0825C
:1039B000708A401C4004400C7082FFE7F0690028C8
:1039C0000BD1CE48CBF8240039004846DBF009FA89
:1039D00031002800FFF7F3F932E0B8F80600009054
:1039E000B8F81230D8F81420F1695846FFF778FB80
:1039F000824639004846DBF0F4F9504680B201288F
:103A000011D0F4690020F0611820207208208BF892
:103A100006002200C421280000F057FB31002800D6
:103A2000FFF7CDF90CE0F08A3083F08A401C4004A7
:103A3000400CF0821E20B08131002800FFF786FD87
:103A4000BDE8F18F2DE9F84305000E0017009846F8
:103A5000D6F80890B089012806D0B28940F22761D3
:103A6000072000F0BEF944E03900286ADBF0B9F91C
:103A7000F07B002804D131002800FFF7A0F938E0DE
:103A8000B8F81000718A884225D1B17B89B24846C6
:103A9000FFF773F90400002C11D016F12C0000F090
:103AA000D5FA0020F0730020C9F82400D9F82400CA
:103AB000216A486122000121280000F006FB708A7B
:103AC000B082708A401C4004400C70823100280093
:103AD000FFF775F90DE0B8F81000B18A884204D1FB
:103AE00031002800FFF76BF903E031002800FFF7F1
:103AF00066F9BDE8F1832DE9F84304000D001600D6
:103B00001F00D5F80880A889012806D0AA8940F2AC
:103B10007D61072000F065F928E03100206ADBF0C4
:103B200060F9E869002804D129002000FFF747F96F
:103B30001CE0D5F81C900020E861B8F80400D9F822
:103B400020100880A87BD9F820104880B869D9F8DF
:103B500020104861182089F808004A46C421200036
:103B600000F0B3FA29002000FFF729F9BDE8F1833E
:103B70002DE9F04788B005000E0017009846306820
:103B8000B04240D03068B04201D1002400E07468F7
:103B9000002C05D100224FF4D761072000F021F955
:103BA000D4F830A0A8680090BAF80A30BAF80C200F
:103BB000DAF8001001A8DAF0C3FE81464846C0B228
:103BC000002805D1002240F2BD61072000F009F96C
:103BD00098F80C00012816D198F80C009DF81010E8
:103BE000884210D1B8F80E00BDF8121088420AD1F0
:103BF000B8F81000BDF81410884204D1390028002C
:103C0000DBF0EFF805E03E60706878607068076090
:103C1000776008B0BDE8F0872DE9F04104000D00A1
:103C200016001F00F088002802D115F1300801E0CD
:103C300015F17808B8F80C00401E09D009380128A1
:103C400007D90A38012804D90A38012801D908E01F
:103C50000EE033003A0018F124012000FFF788FF3E
:103C600027E0B8F80C2040F2F661072000F0B9F820
:103C7000307B012804D0032809D004280ED014E09A
:103C800033003A0041462868FFF745FE11E0330053
:103C90003A0041462868FFF7D5FE0AE033003A00B3
:103CA00041462868FFF727FF03E039002000DBF0DA
:103CB00098F8BDE8F081F8B504000D00002630004A
:103CC00080B2022817DA0E49320092B254204243E1
:103CD0008F18788802280CD1387E002809D1386ADC
:103CE000A04206D1290089B23800FEF7C1F90028A8
:103CF00002D1761CE3E70020F2BD000012FD81CF67
:103D0000588E0874F8B505000E0017003189280098
:103D1000FFF7D1FF0400002C04D139002800DBF0AC
:103D200060F833E0A079022804D039002800DBF0E5
:103D300058F82BE0A07E3178884213D1E07E71786C
:103D400088420FD1207FB17888420BD1607FF17813
:103D5000884207D1A07F3179884203D1E07F717911
:103D6000884204D039002800DBF03BF80EE0208BBD
:103D70007189884204D039002800DBF032F805E070
:103D80003B00320021002800FFF746FFF1BD000094
:103D900038B50400002C06D100223721012000F0A4
:103DA00020F8862010E00025022D08DA00201949AD
:103DB000542202FB05F2891848806D1CF4E76188E3
:103DC000208800F02BF8012032BD10B5002420001F
:103DD00080B2022801DA641CF9E700F086F80120BD
:103DE00010BD70B504000D0016000B4911200880AD
:103DF0004C808D808E600020C8600020086100200B
:103E000048610020C880002088611C20FEF7F4FC77
:103E100070BD0000588E0874008F08747CB50400D3
:103E20000D00994E766070683060280080B20028DE
:103E300006D12A0092B24A210820FFF7D2FF53E0B0
:103E4000280080B2B060200080B2042815D015D3BD
:103E5000062808D00CD3072810D1B1684FF47A7027
:103E60004143B16011E0B16864204143B1600CE0AE
:103E7000B1680A204143B16007E006E0220092B237
:103E80005D210820FFF7ADFF2EE0B58123009BB236
:103E9000022216F10E016846FEF76BFCBDF8000029
:103EA000012805D0BDF8002065210820FFF799FF03
:103EB0000020308200207061B3897269F189684600
:103EC000FEF77AFCBDF80000012805D0BDF80020FF
:103ED0006E210820FFF785FFFF2086F821000020D3
:103EE00086F820000020708473BD1CB5664CE18903
:103EF0006846FEF76FFCBDF80000012805D0BDF84C
:103F0000002087210820FFF76CFFE1896846FEF753
:103F10006AFCBDF80000012805D0BDF800208C2106
:103F20000820FFF75EFF13BD8160C26000230361BC
:103F300000238382704730B40200908A002813D097
:103F40001068514B984201D1002000E01068130026
:103F50001C685D682C605C681B685C60002803D08E
:103F6000046913691C190461474CA068B1FBF0F0A7
:103F7000401C10612068A04201D1002000E02068B0
:103F800000280ED013690569AB420AD3156903698D
:103F9000ED1A15610368A34201D1002000E000681A
:103FA000EEE700280AD004691369E41A046110607E
:103FB0004368536043681A60426005E014606368B8
:103FC000536063681A6062600123938230BC70475B
:103FD00038B504000D002C49488C002805D101207B
:103FE000488411F11800FEF73BFB31BDF8B5050020
:103FF000254E3068B04201D1002400E03468002C26
:1040000021D0206900281ED02069401E206120692F
:10401000002818D13768306801684268116041682B
:10402000006841600020B882F9683800BA6890479B
:104030003068B04201D1002400E03468002C02D086
:1040400020690028E6D000206881F1BD10B4818A83
:10405000002917D001680C4A914201D1002100E0EB
:104060000168020013685468236053681268536043
:10407000002903D00B690269D3180B6100228282E8
:104080000022026110BC70471C8F08742DE9F843B0
:1040900004000D001600E768D4F80880D4F80490F6
:1040A000207C707275810020E0600020A0600020FC
:1040B00060804A4631003800FEF73DFB42464946E3
:1040C0006846FEF7C3FABDE8F18370B504000D0041
:1040D0001600280080B2012804D0412802D0C4284C
:1040E00001D001E000E0FFE7207C7072758162681A
:1040F0003100E068FEF71FFB70BD02001000C0B287
:10410000022808DA34491300DBB254204343C818AC
:104110004188002900D100207047F0B405000B0051
:10412000002100242000C0B2022814DA2A4E270001
:10413000FFB254204743F6197088002809D0307E1A
:10414000002806D0B06800881788B84201D1310035
:1041500001E0641CE6E75088012803D100290DD056
:10416000002037E05088022806D1002902D0488874
:10417000022803D000202DE000202BE00026300094
:10418000C0B2022825DA144C3700FFB2542047434E
:10419000E419608800281AD12670012060806360CD
:1041A000A2606868E060687820740020606100297F
:1041B00004D1012020760020E06106E00020207676
:1041C000C869E06111F120002062200002E0761C45
:1041D000D5E70020F0BC7047588E087438B504004D
:1041E000A568A888A0840020E0840020A06214F1C3
:1041F0002C002063206BE06214F13400A063A06BFC
:104200006063E9882000FDF78EFF002801D10020BF
:1042100000E0012032BD10B504002000FDF7E2FFF0
:104220000020206210BD7FB50400002C02D0207A4F
:10423000012805D0002240F217110320FFF7D1FD1D
:10424000256A002D02D06868002805D1002240F2BE
:104250001D110320FFF7C5FDFF20287000200190ED
:104260006B8801AA02A96846FEF7E3F9BDF80000D1
:10427000012802D10198002805D1002240F2251121
:104280000320FFF7AEFD019A02992800FFF745FFD2
:104290000600002E0ED18420608168786072029A38
:1042A00021006868FEF747FA019A02996846FEF70E
:1042B000CDF91FE07461307E00280AD06988300093
:1042C000FEF733FB002815D1C521300000F013F8AC
:1042D00010E03000FFF782FF002807D13000FFF721
:1042E0009AFFC121300000F006F803E00121300000
:1042F00000F001F87FBD70B504000D006669002074
:104300006061280080B2012806D03200290089B2FD
:104310002000FFF7BBFE09E0022060802078316AB0
:104320000870320001212000FFF7CFFE70BD38B5C4
:104330000400002C02D0207A022805D0002240F28E
:104340006B110320FFF74DFD607AFFF7D6FE0500E5
:10435000002D06D1627A40F271110320FFF741FD72
:104360002FE06888022805D0220087212800FFF767
:10437000ACFE26E06869002805D0220087212800CD
:10438000FFF7A3FE1DE0287E002806D003206880EA
:104390006C612800FEF77AFB13E02800FDF704FFAC
:1043A000002805D0220087212800FFF78EFE08E0B4
:1043B0002800FFF730FF032068806C61280000F0C0
:1043C00001F831BD38B504006569002060612A003C
:1043D00001212000FFF75AFE31BD70B504000D0029
:1043E0002E6A206A80893080A08C7080E08CB0803A
:1043F0000020F080002030812A0001212000FFF7FA
:1044000064FE70BD38B50400002C05D1002240F2D6
:10441000C7110320FFF7E5FC207A002803D1200014
:10442000FFF7E4FD60E0607AFFF767FE0500002D0E
:1044300005D1627A4FF4E9710320FFF7D2FC688856
:10444000022805D0220087212800FFF73EFE4BE01E
:104450006869002805D0220087212800FFF735FE73
:1044600042E0206A002805D1220086212800FFF7BB
:104470002CFE39E0207A03280CD012280FD0132804
:1044800013D0142817D015281AD016281DD0172895
:1044900020D024E021002800FFF79FFF24E0002225
:1044A00021002800FDF7ACFE1EE0012221002800BB
:1044B000FDF7A6FE18E021002800FDF721FF13E01C
:1044C00021002800FDF74EFF0EE021002800FDF737
:1044D000EEFF09E021002800FDF7F4FF04E02200D0
:1044E000C3212800FFF7F1FD31BD0000DFF800F027
:1044F00087FD0574DFF800F037000674DFF800F080
:1045000013F703742DE9FE4307000D0090463E00AB
:104510000024002E10D102210020DAF075FD0028C1
:1045200008D02E48009002233E2241F2FE110020C6
:10453000DAF06DFD00204EE0002D0FD102210020A9
:10454000DAF062FD002808D02548009002234422BA
:1045500041F2FE110020DAF05AFD31E040F2FF7026
:10456000804514DB02210020DAF04EFD00280DD03A
:1045700040F2FE700290CDF804801A4800900223A9
:10458000492241F2FE110020DAF043FD18E05FF00D
:104590000509022241462800FFF7A8FF0400002C6D
:1045A0000ED102210020DAF02FFD002808D00E489D
:1045B000009002235E2241F2FE110020DAF027FD76
:1045C000002C07D10522D6E93201401C71F1FF31E0
:1045D000C6E932012000BDE8FE830000B0730F1071
:1045E000D8730F1000740F104C740F107FB50500B6
:1045F0000C00002C0ED0684600210022002380E829
:104600000E0021006846FFF775FF05266946280061
:10461000FFF774FF7FBD0000DFF800F0810506742E
:10462000DFF800F0C7F80574DFF800F041F6057414
:10463000DFF800F07F2D04742DE9F84305000E002B
:1046400017001C00A8465FF00009002F01D00E20C3
:104650003880002C01D014202080002D01D0002EA5
:1046600011D102210020DAF0CFFC002808D0264822
:1046700000900223492241F2FF110020DAF0C7FC2A
:104680005FF0FF303DE000224FF480414046FFF7ED
:10469000C3FF010000291BD00889C20718D5327852
:1046A00052F001023270002C05D0020092B2920842
:1046B00012F03C022280420704D5327852F0020206
:1046C000327005E0820703D5327852F0040232706E
:1046D00098F82400C00703D5307850F010003070EF
:1046E00098F82400800703D5307850F0200030700F
:1046F00098F82400400703D5307850F0400030701F
:104700000020BDE8F283000074740F1001000A005D
:10471000D069D368984201D1906800E000207047CA
:104720002DE9FC4104000D0016002700D7F81C807D
:1047300040F2EB50804501DB0E20804601200090C6
:104740002B00424600213800FFF76AFF012E02D1FC
:10475000200000F007F84046BDE8F681010008009F
:10476000C069704770B50400250005262800FFF7D2
:104770005BFF70BDF8B504000D002E00052716F58F
:104780001070FFF755FFF2BDDFF800F0AF3606748A
:10479000DFF800F0ECB11100DFF800F07F8605745F
:1047A000DFF800F0FD4B0774DFF800F029390674DC
:1047B000DFF800F0638E0774DFF800F06F3F0674D7
:1047C000DFF800F0F3860574DFF800F083960774D5
:1047D000DFF800F08F960774DFF800F06B8E077437
:1047E000DFF800F0853F0674DFF800F03139067419
:1047F0007047704780B5FFF7C7FF01BD80B586B031
:1048000002A84B491022FFF7C3FF02A90820FFF7B7
:10481000C3FF002815D002210020DAF0F5FB0028A4
:104820000CD0FFF7BDFF00680190424800900223C2
:10483000552241F295110020DAF0EAFB5FF0FF30DB
:1048400000E0002007B000BD00B587B0FFF7ACFF67
:10485000FFF7AEFFFFF7B0FF4FF44040029003A810
:1048600035491022FFF794FF0420019002A8009020
:1048700000230022042103A8FFF7A2FF002815D07F
:1048800002210020DAF0C0FB00280CD0FFF788FFDF
:1048900000680190294800900223762241F2951188
:1048A0000020DAF0B5FB5FF0FF303FE00820069013
:1048B0004FF6FF7002900420019002A800900023A0
:1048C0000022042103A8FFF77BFF002815D0022156
:1048D0000020DAF099FB00280CD0FFF761FF006898
:1048E00001901748009002237E2241F2951100208A
:1048F000DAF08EFB5FF0FF3018E012480068FFF737
:1049000063FF002811D002210020DAF07DFB00288F
:1049100008D00D4800900223A72241F295110020F3
:10492000DAF075FB5FF0FF3000E0002007B000BD5B
:10493000C0720F109C740F10E0740F10F0740F1001
:104940001C750F10588F087448750F1080B5FFF74D
:104950003FFFFFF741FFFFF743FFFFF745FF01BDB3
:10496000DFF800F061A307743EB5040000F0A0F981
:104970000500002C0AD4012D08DB05FB04F0009093
:1049800004226946022000F065F912E002210020AD
:10499000DAF03AFB00280AD002940195A54800906D
:1049A0000223482241F296110020DAF032FB5FF038
:1049B000FF303EBD3EB500F07BF905005FF0FF30F3
:1049C0000400012D0EDB00900420019001AA69462D
:1049D000022000F055F90400002C03D1009890FB50
:1049E000F5F0040020003EBD3EB5040000F060F983
:1049F0000500002C0AD4012D08DB05FB04F0009013
:104A000004226946042000F025F912E0022100206A
:104A1000DAF0FAFA00280AD002940195864800904C
:104A20000223712241F296110020DAF0F2FA5FF0CF
:104A3000FF303EBD3EB500F03BF905005FF0FF30B2
:104A40000400012D0EDB00900420019001AA6946AC
:104A5000042000F015F90400002C03D1009890FB0D
:104A6000F5F0040020003EBD1CB5040000940422B3
:104A700069461A2000F0EEF816BD1CB55FF0FF3055
:104A8000040000900420019001AA69461A2000F059
:104A9000F7F8002801D10099080016BD3EB50400C2
:104AA00000F006F90500002C0AD4012D08DB05FBF7
:104AB00004F00090042269461B2000F0CBF812E0BD
:104AC00002210020DAF0A0FA00280AD00294019511
:104AD0005A4800900223B42241F296110020DAF0E5
:104AE00098FA5FF0FF303EBD3EB5040000F0E0F8FC
:104AF0000500002C0AD4012D08DB05FB04F0009012
:104B000004226946032000F0A5F812E002210020EB
:104B1000DAF07AFA00280AD0029401954848009009
:104B20000223DD2241F296110020DAF072FA5FF0E2
:104B3000FF303EBD3EB500F0BBF805005FF0FF3032
:104B40000400012D0EDB00900420019001AA6946AB
:104B5000032000F095F80400002C03D1009890FB8E
:104B6000F5F0040020003EBD10B531A44FF4807272
:104B700021003448FFF7F4FE4FF4807221003248E0
:104B8000FFF7EEFE4FF4807221003048FFF7E8FE99
:104B90004FF4807221002E48FFF7E2FE10BD38B5B9
:104BA00004000D00B5F5807F06D26A1C210027485D
:104BB000FFF7D6FE002001E05FF0FF3032BD38B5D0
:104BC00004000D00B5F5807F06D26A1C21001D4847
:104BD000FFF7C6FE002001E05FF0FF3032BD38B5C0
:104BE00004000D00B5F5807F06D26A1C210016482E
:104BF000FFF7B6FE002001E05FF0FF3032BD38B5B0
:104C000004000D00B5F5807F06D26A1C2100104813
:104C1000FFF7A6FE002001E05FF0FF3032BD0B4839
:104C200070470848704708487047094870470000B7
:104C30000000000078750F10D8750F102C760F103B
:104C40008C760F105C8F08745C9008745C9108740B
:104C50005C92087470B586B004000D001600042044
:104C6000029002200390062004900594019600957E
:104C700000230022042102A8FFF7A2FD06B070BDA8
:104C800070B586B004000D001600042002900220CA
:104C900003900620049005940020019000200090CD
:104CA00033002A00042102A8FFF78AFD06B070BD78
:104CB0001CB55FF0FF3400940420019001AA6946FE
:104CC0000520FFF7DDFF002801D10099080016BD7F
:104CD000DFF800F009850574DFF800F0519F0774D4
:104CE000DFF800F05D840574DFF800F03F830574A1
:104CF000DFF800F08B870574DFF800F03D9F077444
:104D0000DFF800F0299F0774DFF800F019830574BD
:104D1000F8B58AB004002500002706210020DAF04B
:104D200073F900280CD015F138000190DFF8100855
:104D300000900623662241F297110020DAF06BF909
:104D4000002202210220FFF7C3FF0600002E3DD4FF
:104D5000202102A8FFF7C0FF102215F1380102A898
:104D6000FFF7FEFD02AADFF8DC173000FFF7B8FFFF
:104D7000002827D5FFF714FD0068312812D0022142
:104D80000020DAF041F9002809D0DFF8BC070090D4
:104D90000223712241F297110020DAF038F95FF016
:104DA000FF30070006210020DAF02EF9002809D094
:104DB000DFF8980700900623742241F29711002033
:104DC000DAF025F93000FFF78FFF02E05FF0FF30E7
:104DD000070038000BB0F0BD2DE9F04792B0040099
:104DE0000D0016001F005FF0FF39CA46402102A8DF
:104DF000FFF772FF1022310002A8FFF7B1FD022079
:104E00008DF8190002AA29002000FFF769FF8046EB
:104E1000B8F1000F20D5FFF7C3FC0068312806D198
:104E200000203860FFF7BCFCD0F8009018E00221A9
:104E30000020DAF0E9F800280DD0FFF7B1FC006897
:104E40000190DFF80C0700900223952241F29711A0
:104E50000020DAF0DDF803E0079838605FF0000921
:104E6000484612B0BDE8F0872DE9FC4707000C006A
:104E700015005FF0FF39C8463E00002E49D0002CD7
:104E800047D0002D45D0002202210220FFF720FF4D
:104E90008246BAF1000F3CD4230016F13802DFF845
:104EA000B4165046FFF798FF002811D502210020C4
:104EB000DAF0AAF8002809D0DFF89C060090022357
:104EC000AE2241F297110020DAF0A1F8C8461DE0A9
:104ED0002B0016F13802DFF884165046FFF77CFFEE
:104EE000002811D502210020DAF08EF8002809D020
:104EF000DFF86C0600900223B52241F297110020E2
:104F0000DAF085F8C84601E0002080465046FFF7F9
:104F1000EBFE4046BDE8F6872DE9F34397B0050068
:104F200016002F00002005900020069006AA05A973
:104F30002800FFF799FF8146B9F1000F11D5022132
:104F40000020DAF061F8002809D0DFF81806009098
:104F50000223CE2241F297110020DAF058F8484699
:104F6000CCE006210020DAF04FF8002815D09DF89B
:104F7000630004909DF8620003909DF86100029028
:104F80009DF860000190DFF8E00500900623D6222E
:104F900041F297110020DAF03DF806210020DAF006
:104FA00033F800280CD017F138000190DFF8BC0569
:104FB00000900623D72241F297110020DAF02BF857
:104FC0002800FFF7A5FE0400002C40F09680002288
:104FD00002210220FFF77CFE8046B8F1000F00F1AD
:104FE0008C80402107A8FFF777FE102217F13801C7
:104FF00007A8FFF7B5FC18980C9010208DF82C002E
:1050000002208DF82D00149610208DF84C000220FF
:105010008DF84D00DFF8589507AA49464046FFF73E
:105020005FFE002855D502210020D9F0EDFF0028B1
:105030000DD0FFF7B5FB00680190DFF83805009050
:105040000223EF2241F297110020D9F0E1FF5FF037
:10505000FF300400059800284CD004210020D9F02E
:10506000D3FF002815D09DF8170004909DF8160076
:1050700003909DF8150002909DF814000190DFF850
:10508000F80400900423F82241F297110020D9F08F
:10509000C1FF05980C900698149007AA494640460F
:1050A000FFF71EFE002825D502210020D9F0ACFF15
:1050B00000280DD0FFF774FB00680190DFF8BC04F6
:1050C00000900223FE2241F297110020D9F0A0FFA8
:1050D00010E006210020D9F097FF00280AD0DFF861
:1050E000A004009006234FF4817241F29711002032
:1050F000D9F08DFF4046FFF7F7FD200019B0BDE85D
:10510000F0832DE9F04790B004000D005FF0000936
:105110000027FFF7EDFD8046002203211120FFF755
:10512000D7FD060016F1010F3DD057F00107102200
:10513000002108A8FFF7E0FD10208DF820000220D4
:105140008DF82100099457F004071022002104A8CB
:10515000FFF7D2FD10208DF8100002208DF811000D
:105160000595102200210CA8FFF7C6FD0CA803909E
:1051700004A8029008A801900097434640F6030255
:105180000221300000F09FF882461AF1010F06D18B
:10519000FFF706FB0068032801D10020824630009B
:1051A000FFF7A2FD01E05FF0FF3A504610B0BDE806
:1051B000F0872DE9F84F90B004000D0016005FF065
:1051C00000085FF00009FFF793FD824600220321EB
:1051D0001120FFF77DFD070017F1010F3DD059F0B9
:1051E0000109102200210CA8FFF786FD10208DF880
:1051F000300002208DF831000D9459F0040910227E
:10520000002108A8FFF778FD10208DF8200002206B
:105210008DF82100099559F002091022002104A8F7
:10522000FFF76AFD10208DF8100002208DF81100A4
:10523000059604A8039008A802900CA80190CDF848
:105240000090534640F603020121380000F03BF87D
:1052500083463800FFF748FD01E05FF0FF3B58460A
:1052600011B0BDE8F08F01B586B002A8C549102283
:10527000FFF78EFA0420019006A800900023002278
:10528000042102A8FFF79CFA07B000BD18B587B04B
:10529000040003A8BC491022FFF77AFA002002900C
:1052A000002C02D15FF0FF300BE0042002900020C0
:1052B00001900020009002AB2200042103A8FFF718
:1052C0007FFA08B010BD2DE9F54FADF53D7D0C001E
:1052D0001D00C89EC99FDDF82883DDF82C93012CA2
:1052E00002D0022C40F02681002015900DF1F00A2A
:1052F0005FF0000B3822002116A8FFF7FDFC1022FA
:10530000002111A8FFF7F8FC102200210DA8FFF7DB
:10531000F3FC1022002109A8FFF7EEFC1022002167
:1053200005A8FFF7E9FC1022002101A8FFF7E4FC23
:10533000FFF736FA002101604FF41872002124A80B
:10534000FFF7DAFC20008DF89300BE98289000202B
:10535000299005208DF892008C480168491C016055
:1053600000682B9027962EA816A93822FFF710FA6E
:1053700000202D902800ADF8980000208DF89A00AC
:1053800000208DF89B006020ADF89400F00714D544
:105390003878002808D097F800B0BBF1010B5BF01B
:1053A000030B1BF1010B01E05FF0040B5A463900BF
:1053B0005046FFF7A5FC1AEB0B0AB00715D599F874
:1053C0000000002808D099F800B0BBF1010B5BF099
:1053D000030B1BF1010B01E05FF0040B5A46494639
:1053E0005046FFF78DFC1AEB0B0A700715D598F89D
:1053F0000000002808D098F800B0BBF1010B5BF06A
:10540000030B1BF1010B01E05FF0040B5A46414610
:105410005046FFF775FC1AEB0B0A300715D59DF8BF
:105420004400002808D09DF844B0BBF1010B5BF0AC
:10543000030B1BF1010B01E05FF0040B5A4611A9AD
:105440005046FFF75DFC1AEB0B0AF00615D59DF8E8
:105450002400002808D09DF824B0BBF1010B5BF0BC
:10546000030B1BF1010B01E05FF0040B5A4609A985
:105470005046FFF745FC1AEB0B0AB00615D59DF810
:105480003400002808D09DF834B0BBF1010B5BF06C
:10549000030B1BF1010B01E05FF0040B5A460DA951
:1054A0005046FFF72DFC1AEB0B0A700515D59DF839
:1054B0001400002808D09DF814B0BBF1010B5BF07C
:1054C000030B1BF1010B01E05FF0040B5A4605A929
:1054D0005046FFF715FC1AEB0B0AF00515D59DF8A1
:1054E0000400002808D09DF804B0BBF1010B5BF06C
:1054F000030B1BF1010B01E05FF0040B5A4601A9FD
:105500005046FFF7FDFB1AEB0B0A24A8BAEB00008C
:1055100000900098ADF89000009A24A9BD98FFF77C
:10552000F3FB01000098814202D05FF0FF3003E0FE
:10553000002001E05FF0FF300DF53F7DBDE8F08F0A
:10554000E8760F10196920802C770F1070770F10F4
:10555000C4770F10216920C000780F10256920C082
:1055600030780F1064780F10C4780F1004790F1082
:105570001A69408034790F1098790F10D4790F1080
:10558000087A0F10387A0F10487A0F105C9308745D
:10559000DFF800F05CB21100DFF800F0F79D07744F
:1055A000DFF800F041290474DFF800F0259E07744D
:1055B000DFF800F06D2A0474DFF800F0C72B0474E4
:1055C000DFF800F041980674DFF800F0BD3A067489
:1055D000DFF800F0CBD20474DFF800F07F3A0674F5
:1055E000DFF800F0F73A0674DFF800F081D40574B4
:1055F000DFF800F0AB650574DFF800F02D3A0674B3
:105600002DE9F84305000E001700984600220221FC
:105610004FF45C70FFF7C0FF04005FF00009082141
:105620000020D9F0F1FC002809D0DFF890040090A8
:105630000823522241F298110020D9F0E8FC002CF6
:1056400010D102210020D9F0DFFC002809D0DFF8BA
:10565000700400900223552241F298110020D9F0E5
:10566000D6FC6DE04FF45C7200212000FFF744FB94
:10567000C4F86853A1460622310014F54E70FFF7B6
:105680003FFB2000FFF78CFF002816D002210020EE
:10569000D9F0BAFC002809D0DFF8280400900223D2
:1056A000662241F298110020D9F0B1FC00220221BB
:1056B0002000FFF779FF002053E04846FFF778FF0E
:1056C000002819D002210020D9F09EFC002809D022
:1056D000DFF8F403009002236C2241F298110020BD
:1056E000D9F095FC2000FFF767FF0022022120007F
:1056F000FFF75AFF002034E03900484600F05CF81C
:10570000002819D002210020D9F07EFC002809D001
:10571000DFF8B80300900223732241F298110020B1
:10572000D9F075FC2000FFF747FF0022022120007E
:10573000FFF73AFF002014E00021484600F0BFF8D0
:1057400008210020D9F060FC002809D0DFF8800390
:10575000009008237C2241F298110020D9F057FCD8
:105760004846BDE8F2832DE9F04104000D00160023
:105770002700B6F5807F01DBFF2006005FF00508FB
:105780003200290017F58A70FFF7BAFAFF2E00D110
:10579000761E0020B91981F8140117F58A71F86D89
:1057A00080B2FFF70DFF2000FFF70EFFBDE8F0818C
:1057B00001000800C06D70472DE9F0418AB0040077
:1057C0000D005FF0FF36A04608210020D9F01CFC38
:1057D000002808D0BF4800900823C72241F2981142
:1057E0000020D9F014FC002202210220FFF770FAF9
:1057F000070000283DD402A82021FFF7C9FE10228F
:1058000018F1380102A8FFF7ABF802AAB249380034
:10581000FFF766FA002815D1012D06D1BDF8180052
:1058200050F00100ADF8180005E0BDF8180030F0A8
:105830000100ADF8180002AAA8493800FFF750FA95
:10584000060012E002210020D9F0DEFB00280CD077
:10585000FEF7A6FF00680190A14800900223D7221E
:1058600041F298110020D9F0D3FB3800FFF73CFA41
:1058700012E002210020D9F0C7FB00280CD0FEF76F
:105880008FFF00680190974800900223DC2241F2CC
:1058900098110020D9F0BCFB08210020D9F0B4FBFE
:1058A000002808D0904800900823DF2241F2981188
:1058B0000020D9F0ACFB30000AB0BDE8F081F8B5AB
:1058C00004000D0026000527012D03D1042086F8D1
:1058D0006B0002E0022086F86B0016F1E800FFF78B
:1058E00077FEF1BDF8B505000C002E00052720005D
:1058F000E117C6E91E0121002800FFF76DFEF1BD8A
:1059000010B402000523CC0706D5D2F8E04054F0CD
:105910000104C2F8E04005E0D2F8E0406408640009
:10592000C2F8E0408C0706D5D2F8E04054F00204FB
:10593000C2F8E04005E0D2F8E04034F00204C2F8DA
:10594000E0404C0706D5D2F8E04054F08004C2F89D
:10595000E04005E0D2F8E04034F08004C2F8E040D6
:105960000C0706D5D2F8E04054F00404C2F8E04039
:1059700005E0D2F8E04034F00404C2F8E040CC0680
:1059800006D5D2F8E04054F48074C2F8E04005E057
:10599000D2F8E04034F48074C2F8E04010BC7047A4
:1059A000F8B505002E003000FFF71AFE04000821AC
:1059B0000020D9F029FB002809D04C48009008238A
:1059C00040F23B1241F298110020D9F020FBFFF782
:1059D0000BFED6F830024649884255D13768002080
:1059E000C7F8680300212800FFF7E6FE002812D060
:1059F00002210020D9F008FB002809D03D48009082
:105A000002234FF4A37241F298110020D9F0FFFA5B
:105A100029A0FFF7EDFD00212800FFF750FF280027
:105A2000FFF776F9002812D002210020D9F0ECFA15
:105A3000002809D030480090022340F24D1241F274
:105A400098110020D9F0E3FA1BA0FFF7D1FD380030
:105A5000FFF7B2FD002812D002210020D9F0D4FABD
:105A6000002809D02548009002234FF4A97241F282
:105A700098110020D9F0CBFA0FA0FFF7B9FD002252
:105A800002213800FFF790FD002C03D014F13800FC
:105A9000FFF7B2FD08210020D9F0B6FA002809D09E
:105AA00017480090082340F25D1241F2981100203F
:105AB000D9F0ADFA0020F2BD00000000587A0F10B6
:105AC000887A0F10CC7A0F10107B0F10507B0F10BC
:105AD000A07B0F10D07B0F10116920C010692080AF
:105AE000F47B0F10307C0F106C7C0F108C7C0F102F
:105AF000FD290474C07C0F10107D0F10607D0F1005
:105B0000A47D0F10DFF800F0C8B11100DFF800F03D
:105B100064B21100002141F60432815041F6440183
